{
  "address": "0xe7f1725E7734CE288F8367e1Bb143E90bb3F0512",
  "abi": [
    {
      "inputs": [
        {
          "internalType": "address",
          "name": "priceFeedAddress",
          "type": "address"
        }
      ],
      "stateMutability": "nonpayable",
      "type": "constructor"
    },
    {
      "inputs": [],
      "name": "FundMe__NotOwner",
      "type": "error"
    },
    {
      "inputs": [],
      "name": "MINIMUM_USD",
      "outputs": [
        {
          "internalType": "uint256",
          "name": "",
          "type": "uint256"
        }
      ],
      "stateMutability": "view",
      "type": "function"
    },
    {
      "inputs": [],
      "name": "cheaperWithdraw",
      "outputs": [],
      "stateMutability": "payable",
      "type": "function"
    },
    {
      "inputs": [],
      "name": "fund",
      "outputs": [],
      "stateMutability": "payable",
      "type": "function"
    },
    {
      "inputs": [
        {
          "internalType": "address",
          "name": "funder",
          "type": "address"
        }
      ],
      "name": "getAddressToAmountFunded",
      "outputs": [
        {
          "internalType": "uint256",
          "name": "",
          "type": "uint256"
        }
      ],
      "stateMutability": "view",
      "type": "function"
    },
    {
      "inputs": [
        {
          "internalType": "uint256",
          "name": "index",
          "type": "uint256"
        }
      ],
      "name": "getFunder",
      "outputs": [
        {
          "internalType": "address",
          "name": "",
          "type": "address"
        }
      ],
      "stateMutability": "view",
      "type": "function"
    },
    {
      "inputs": [],
      "name": "getOwner",
      "outputs": [
        {
          "internalType": "address",
          "name": "",
          "type": "address"
        }
      ],
      "stateMutability": "view",
      "type": "function"
    },
    {
      "inputs": [],
      "name": "getPriceFeed",
      "outputs": [
        {
          "internalType": "contract AggregatorV3Interface",
          "name": "",
          "type": "address"
        }
      ],
      "stateMutability": "view",
      "type": "function"
    },
    {
      "inputs": [],
      "name": "s_priceFeed",
      "outputs": [
        {
          "internalType": "contract AggregatorV3Interface",
          "name": "",
          "type": "address"
        }
      ],
      "stateMutability": "view",
      "type": "function"
    },
    {
      "inputs": [],
      "name": "withdraw",
      "outputs": [],
      "stateMutability": "nonpayable",
      "type": "function"
    }
  ],
  "transactionHash": "0xc6645907122d2424d0634350eb2d9f838cc63896a99e0759437c881316ccbbab",
  "args": [
    "0x5FbDB2315678afecb367f032d93F642f64180aa3"
  ],
  "numDeployments": 1,
  "solcInputHash": "e247f4834957b9efabcd84c40b4d2209",
  "bytecode": "0x60a060405234801561001057600080fd5b506040516111c83803806111c883398181016040528101906100329190610110565b3373ffffffffffffffffffffffffffffffffffffffff1660808173ffffffffffffffffffffffffffffffffffffffff168152505080600260006101000a81548173ffffffffffffffffffffffffffffffffffffffff021916908373ffffffffffffffffffffffffffffffffffffffff1602179055505061013d565b600080fd5b600073ffffffffffffffffffffffffffffffffffffffff82169050919050565b60006100dd826100b2565b9050919050565b6100ed816100d2565b81146100f857600080fd5b50565b60008151905061010a816100e4565b92915050565b600060208284031215610126576101256100ad565b5b6000610134848285016100fb565b91505092915050565b60805161105b61016d6000396000818161024d015281816104960152818161060f01526107ff015261105b6000f3fe6080604052600436106100865760003560e01c8063893d20e811610059578063893d20e8146101355780639e87a5cd14610160578063b60d42881461018b578063be2693f014610195578063d7b4750c1461019f57610086565b80630343fb251461008b5780630ec3b027146100c85780633ccfd60b146100f35780636b69a5921461010a575b600080fd5b34801561009757600080fd5b506100b260048036038101906100ad9190610ae9565b6101dc565b6040516100bf9190610b2f565b60405180910390f35b3480156100d457600080fd5b506100dd610225565b6040516100ea9190610ba9565b60405180910390f35b3480156100ff57600080fd5b5061010861024b565b005b34801561011657600080fd5b5061011f610485565b60405161012c9190610b2f565b60405180910390f35b34801561014157600080fd5b5061014a610492565b6040516101579190610bd3565b60405180910390f35b34801561016c57600080fd5b506101756104ba565b6040516101829190610ba9565b60405180910390f35b6101936104e4565b005b61019d61060d565b005b3480156101ab57600080fd5b506101c660048036038101906101c19190610c1a565b6108cb565b6040516101d39190610bd3565b60405180910390f35b6000600160008373ffffffffffffffffffffffffffffffffffffffff1673ffffffffffffffffffffffffffffffffffffffff168152602001908152602001600020549050919050565b600260009054906101000a900473ffffffffffffffffffffffffffffffffffffffff1681565b7f000000000000000000000000000000000000000000000000000000000000000073ffffffffffffffffffffffffffffffffffffffff163373ffffffffffffffffffffffffffffffffffffffff16146102d0576040517f579610db00000000000000000000000000000000000000000000000000000000815260040160405180910390fd5b60005b6000805490508110156103755760008082815481106102f5576102f4610c47565b5b9060005260206000200160009054906101000a900473ffffffffffffffffffffffffffffffffffffffff1690506000600160008373ffffffffffffffffffffffffffffffffffffffff1673ffffffffffffffffffffffffffffffffffffffff168152602001908152602001600020819055505080806001019150506102d3565b50600067ffffffffffffffff81111561039157610390610c76565b5b6040519080825280602002602001820160405280156103bf5781602001602082028036833780820191505090505b50600090805190602001906103d59291906109df565b5060003373ffffffffffffffffffffffffffffffffffffffff16476040516103fc90610cd6565b60006040518083038185875af1925050503d8060008114610439576040519150601f19603f3d011682016040523d82523d6000602084013e61043e565b606091505b5050905080610482576040517f08c379a000000000000000000000000000000000000000000000000000000000815260040161047990610d48565b60405180910390fd5b50565b6802b5e3af16b188000081565b60007f0000000000000000000000000000000000000000000000000000000000000000905090565b6000600260009054906101000a900473ffffffffffffffffffffffffffffffffffffffff16905090565b6802b5e3af16b1880000610523600260009054906101000a900473ffffffffffffffffffffffffffffffffffffffff163461091290919063ffffffff16565b1015610564576040517f08c379a000000000000000000000000000000000000000000000000000000000815260040161055b90610db4565b60405180910390fd5b6000339080600181540180825580915050600190039060005260206000200160009091909190916101000a81548173ffffffffffffffffffffffffffffffffffffffff021916908373ffffffffffffffffffffffffffffffffffffffff16021790555034600160003373ffffffffffffffffffffffffffffffffffffffff1673ffffffffffffffffffffffffffffffffffffffff16815260200190815260200160002081905550565b7f000000000000000000000000000000000000000000000000000000000000000073ffffffffffffffffffffffffffffffffffffffff163373ffffffffffffffffffffffffffffffffffffffff1614610692576040517f579610db00000000000000000000000000000000000000000000000000000000815260040160405180910390fd5b60008080548060200260200160405190810160405280929190818152602001828054801561071557602002820191906000526020600020905b8160009054906101000a900473ffffffffffffffffffffffffffffffffffffffff1673ffffffffffffffffffffffffffffffffffffffff16815260200190600101908083116106cb575b5050505050905060005b815181101561079a57600082828151811061073d5761073c610c47565b5b602002602001015190506000600160008373ffffffffffffffffffffffffffffffffffffffff1673ffffffffffffffffffffffffffffffffffffffff1681526020019081526020016000208190555050808060010191505061071f565b50600067ffffffffffffffff8111156107b6576107b5610c76565b5b6040519080825280602002602001820160405280156107e45781602001602082028036833780820191505090505b50600090805190602001906107fa9291906109df565b5060007f000000000000000000000000000000000000000000000000000000000000000073ffffffffffffffffffffffffffffffffffffffff164760405161084190610cd6565b60006040518083038185875af1925050503d806000811461087e576040519150601f19603f3d011682016040523d82523d6000602084013e610883565b606091505b50509050806108c7576040517f08c379a00000000000000000000000000000000000000000000000000000000081526004016108be90610d48565b60405180910390fd5b5050565b60008082815481106108e0576108df610c47565b5b9060005260206000200160009054906101000a900473ffffffffffffffffffffffffffffffffffffffff169050919050565b60008061091e8361094e565b90506000670de0b6b3a764000085836109379190610e03565b6109419190610e74565b9050809250505092915050565b6000808273ffffffffffffffffffffffffffffffffffffffff1663feaf968c6040518163ffffffff1660e01b815260040160a060405180830381865afa15801561099c573d6000803e3d6000fd5b505050506040513d601f19601f820116820180604052508101906109c09190610f32565b5050509150506402540be400816109d79190610fad565b915050919050565b828054828255906000526020600020908101928215610a58579160200282015b82811115610a575782518260006101000a81548173ffffffffffffffffffffffffffffffffffffffff021916908373ffffffffffffffffffffffffffffffffffffffff160217905550916020019190600101906109ff565b5b509050610a659190610a69565b5090565b5b80821115610a82576000816000905550600101610a6a565b5090565b600080fd5b600073ffffffffffffffffffffffffffffffffffffffff82169050919050565b6000610ab682610a8b565b9050919050565b610ac681610aab565b8114610ad157600080fd5b50565b600081359050610ae381610abd565b92915050565b600060208284031215610aff57610afe610a86565b5b6000610b0d84828501610ad4565b91505092915050565b6000819050919050565b610b2981610b16565b82525050565b6000602082019050610b446000830184610b20565b92915050565b6000819050919050565b6000610b6f610b6a610b6584610a8b565b610b4a565b610a8b565b9050919050565b6000610b8182610b54565b9050919050565b6000610b9382610b76565b9050919050565b610ba381610b88565b82525050565b6000602082019050610bbe6000830184610b9a565b92915050565b610bcd81610aab565b82525050565b6000602082019050610be86000830184610bc4565b92915050565b610bf781610b16565b8114610c0257600080fd5b50565b600081359050610c1481610bee565b92915050565b600060208284031215610c3057610c2f610a86565b5b6000610c3e84828501610c05565b91505092915050565b7f4e487b7100000000000000000000000000000000000000000000000000000000600052603260045260246000fd5b7f4e487b7100000000000000000000000000000000000000000000000000000000600052604160045260246000fd5b600081905092915050565b50565b6000610cc0600083610ca5565b9150610ccb82610cb0565b600082019050919050565b6000610ce182610cb3565b9150819050919050565b600082825260208201905092915050565b7f53656e64206661696c6564000000000000000000000000000000000000000000600082015250565b6000610d32600b83610ceb565b9150610d3d82610cfc565b602082019050919050565b60006020820190508181036000830152610d6181610d25565b9050919050565b7f4469646e27742073656e6420656e6f7567682045544821000000000000000000600082015250565b6000610d9e601783610ceb565b9150610da982610d68565b602082019050919050565b60006020820190508181036000830152610dcd81610d91565b9050919050565b7f4e487b7100000000000000000000000000000000000000000000000000000000600052601160045260246000fd5b6000610e0e82610b16565b9150610e1983610b16565b9250828202610e2781610b16565b91508282048414831517610e3e57610e3d610dd4565b5b5092915050565b7f4e487b7100000000000000000000000000000000000000000000000000000000600052601260045260246000fd5b6000610e7f82610b16565b9150610e8a83610b16565b925082610e9a57610e99610e45565b5b828204905092915050565b600069ffffffffffffffffffff82169050919050565b610ec481610ea5565b8114610ecf57600080fd5b50565b600081519050610ee181610ebb565b92915050565b6000819050919050565b610efa81610ee7565b8114610f0557600080fd5b50565b600081519050610f1781610ef1565b92915050565b600081519050610f2c81610bee565b92915050565b600080600080600060a08688031215610f4e57610f4d610a86565b5b6000610f5c88828901610ed2565b9550506020610f6d88828901610f08565b9450506040610f7e88828901610f1d565b9350506060610f8f88828901610f1d565b9250506080610fa088828901610ed2565b9150509295509295909350565b6000610fb882610ee7565b9150610fc383610ee7565b9250828202610fd181610ee7565b91507f8000000000000000000000000000000000000000000000000000000000000000841460008412161561100957611008610dd4565b5b828205841483151761101e5761101d610dd4565b5b509291505056fea2646970667358221220865640f3f55d657b1829000c10f1da1abb235e58de20082ae9bac9f8c68a8c1664736f6c634300081e0033",
  "devdoc": {
    "author": "FengZhi",
    "details": "This implements price feeds as our library",
    "kind": "dev",
    "methods": {},
    "title": "A contract for crowd funding",
    "version": 1
  },
  "userdoc": {
    "kind": "user",
    "methods": {},
    "notice": "Tish contract is to demo a sample funding contract",
    "version": 1
  },
  "storageLayout": {
    "storage": [
      {
        "astId": 63,
        "contract": "contracts/FundMe.sol:FundMe",
        "label": "s_funders",
        "offset": 0,
        "slot": "0",
        "type": "t_array(t_address)dyn_storage"
      },
      {
        "astId": 67,
        "contract": "contracts/FundMe.sol:FundMe",
        "label": "s_addressToAmountFunded",
        "offset": 0,
        "slot": "1",
        "type": "t_mapping(t_address,t_uint256)"
      },
      {
        "astId": 72,
        "contract": "contracts/FundMe.sol:FundMe",
        "label": "s_priceFeed",
        "offset": 0,
        "slot": "2",
        "type": "t_contract(AggregatorV3Interface)45"
      }
    ],
    "types": {
      "t_address": {
        "encoding": "inplace",
        "label": "address",
        "numberOfBytes": "20"
      },
      "t_array(t_address)dyn_storage": {
        "base": "t_address",
        "encoding": "dynamic_array",
        "label": "address[]",
        "numberOfBytes": "32"
      },
      "t_contract(AggregatorV3Interface)45": {
        "encoding": "inplace",
        "label": "contract AggregatorV3Interface",
        "numberOfBytes": "20"
      },
      "t_mapping(t_address,t_uint256)": {
        "encoding": "mapping",
        "key": "t_address",
        "label": "mapping(address => uint256)",
        "numberOfBytes": "32",
        "value": "t_uint256"
      },
      "t_uint256": {
        "encoding": "inplace",
        "label": "uint256",
        "numberOfBytes": "32"
      }
    }
  }
}